{
  "_format": "hh-sol-artifact-1",
  "contractName": "Cap10",
  "sourceName": "contracts/Cap10.sol",
  "abi": [
    {
      "inputs": [],
      "stateMutability": "nonpayable",
      "type": "constructor"
    },
    {
      "inputs": [],
      "name": "BUSD",
      "outputs": [
        {
          "internalType": "address",
          "name": "",
          "type": "address"
        }
      ],
      "stateMutability": "view",
      "type": "function"
    },
    {
      "inputs": [],
      "name": "CAKE",
      "outputs": [
        {
          "internalType": "address",
          "name": "",
          "type": "address"
        }
      ],
      "stateMutability": "view",
      "type": "function"
    },
    {
      "inputs": [],
      "name": "pancakeRouter",
      "outputs": [
        {
          "internalType": "contract IPancakeRouter02",
          "name": "",
          "type": "address"
        }
      ],
      "stateMutability": "view",
      "type": "function"
    },
    {
      "inputs": [],
      "name": "swapBNBForTokens",
      "outputs": [],
      "stateMutability": "payable",
      "type": "function"
    },
    {
      "stateMutability": "payable",
      "type": "receive"
    }
  ],
  "bytecode": "0x60e060405234801561001057600080fd5b5073d99d1c33f9fc3444f8101754abc46c52416550d173ffffffffffffffffffffffffffffffffffffffff1660808173ffffffffffffffffffffffffffffffffffffffff168152505073f9f93cf501bfadb6494589cb4b4c15de49e85d0e73ffffffffffffffffffffffffffffffffffffffff1660a08173ffffffffffffffffffffffffffffffffffffffff168152505073ab1a4d4f1d656d2450692d237fdd6c7f9146e81473ffffffffffffffffffffffffffffffffffffffff1660c08173ffffffffffffffffffffffffffffffffffffffff168152505060805160a05160c051610bd86101416000396000818160dc01526104e701526000818161010001526102a30152600081816101c6015281816103120152818161040a0152818161055601526106050152610bd86000f3fe6080604052600436106100435760003560e01c8063484f4ea91461004f5780634ca6ef281461007a578063b70fd139146100a5578063c21ebd07146100af5761004a565b3661004a57005b600080fd5b34801561005b57600080fd5b506100646100da565b6040516100719190610668565b60405180910390f35b34801561008657600080fd5b5061008f6100fe565b60405161009c9190610668565b60405180910390f35b6100ad610122565b005b3480156100bb57600080fd5b506100c4610603565b6040516100d191906106e2565b60405180910390f35b7f000000000000000000000000000000000000000000000000000000000000000081565b7f000000000000000000000000000000000000000000000000000000000000000081565b60003411610165576040517f08c379a000000000000000000000000000000000000000000000000000000000815260040161015c9061075a565b60405180910390fd5b600060023461017491906107b3565b90506000600267ffffffffffffffff811115610193576101926107e4565b5b6040519080825280602002602001820160405280156101c15781602001602082028036833780820191505090505b5090507f000000000000000000000000000000000000000000000000000000000000000073ffffffffffffffffffffffffffffffffffffffff1663ad5c46486040518163ffffffff1660e01b8152600401602060405180830381865afa15801561022f573d6000803e3d6000fd5b505050506040513d601f19601f820116820180604052508101906102539190610853565b8160008151811061026757610266610880565b5b602002602001019073ffffffffffffffffffffffffffffffffffffffff16908173ffffffffffffffffffffffffffffffffffffffff16815250507f0000000000000000000000000000000000000000000000000000000000000000816001815181106102d6576102d5610880565b5b602002602001019073ffffffffffffffffffffffffffffffffffffffff16908173ffffffffffffffffffffffffffffffffffffffff16815250507f000000000000000000000000000000000000000000000000000000000000000073ffffffffffffffffffffffffffffffffffffffff16637ff36ab58360008433426040518663ffffffff1660e01b815260040161037194939291906109b7565b60006040518083038185885af115801561038f573d6000803e3d6000fd5b50505050506040513d6000823e3d601f19601f820116820180604052508101906103b99190610b59565b506000600267ffffffffffffffff8111156103d7576103d66107e4565b5b6040519080825280602002602001820160405280156104055781602001602082028036833780820191505090505b5090507f000000000000000000000000000000000000000000000000000000000000000073ffffffffffffffffffffffffffffffffffffffff1663ad5c46486040518163ffffffff1660e01b8152600401602060405180830381865afa158015610473573d6000803e3d6000fd5b505050506040513d601f19601f820116820180604052508101906104979190610853565b816000815181106104ab576104aa610880565b5b602002602001019073ffffffffffffffffffffffffffffffffffffffff16908173ffffffffffffffffffffffffffffffffffffffff16815250507f00000000000000000000000000000000000000000000000000000000000000008160018151811061051a57610519610880565b5b602002602001019073ffffffffffffffffffffffffffffffffffffffff16908173ffffffffffffffffffffffffffffffffffffffff16815250507f000000000000000000000000000000000000000000000000000000000000000073ffffffffffffffffffffffffffffffffffffffff16637ff36ab58460008433426040518663ffffffff1660e01b81526004016105b594939291906109b7565b60006040518083038185885af11580156105d3573d6000803e3d6000fd5b50505050506040513d6000823e3d601f19601f820116820180604052508101906105fd9190610b59565b50505050565b7f000000000000000000000000000000000000000000000000000000000000000081565b600073ffffffffffffffffffffffffffffffffffffffff82169050919050565b600061065282610627565b9050919050565b61066281610647565b82525050565b600060208201905061067d6000830184610659565b92915050565b6000819050919050565b60006106a86106a361069e84610627565b610683565b610627565b9050919050565b60006106ba8261068d565b9050919050565b60006106cc826106af565b9050919050565b6106dc816106c1565b82525050565b60006020820190506106f760008301846106d3565b92915050565b600082825260208201905092915050565b7f4d7573742073656e6420424e4200000000000000000000000000000000000000600082015250565b6000610744600d836106fd565b915061074f8261070e565b602082019050919050565b6000602082019050818103600083015261077381610737565b9050919050565b6000819050919050565b7f4e487b7100000000000000000000000000000000000000000000000000000000600052601260045260246000fd5b60006107be8261077a565b91506107c98361077a565b9250826107d9576107d8610784565b5b828204905092915050565b7f4e487b7100000000000000000000000000000000000000000000000000000000600052604160045260246000fd5b6000604051905090565b600080fd5b600080fd5b61083081610647565b811461083b57600080fd5b50565b60008151905061084d81610827565b92915050565b6000602082840312156108695761086861081d565b5b60006108778482850161083e565b91505092915050565b7f4e487b7100000000000000000000000000000000000000000000000000000000600052603260045260246000fd5b6000819050919050565b60006108d46108cf6108ca846108af565b610683565b61077a565b9050919050565b6108e4816108b9565b82525050565b600081519050919050565b600082825260208201905092915050565b6000819050602082019050919050565b61091f81610647565b82525050565b60006109318383610916565b60208301905092915050565b6000602082019050919050565b6000610955826108ea565b61095f81856108f5565b935061096a83610906565b8060005b8381101561099b5781516109828882610925565b975061098d8361093d565b92505060018101905061096e565b5085935050505092915050565b6109b18161077a565b82525050565b60006080820190506109cc60008301876108db565b81810360208301526109de818661094a565b90506109ed6040830185610659565b6109fa60608301846109a8565b95945050505050565b600080fd5b6000601f19601f8301169050919050565b610a2282610a08565b810181811067ffffffffffffffff82111715610a4157610a406107e4565b5b80604052505050565b6000610a54610813565b9050610a608282610a19565b919050565b600067ffffffffffffffff821115610a8057610a7f6107e4565b5b602082029050602081019050919050565b600080fd5b610a9f8161077a565b8114610aaa57600080fd5b50565b600081519050610abc81610a96565b92915050565b6000610ad5610ad084610a65565b610a4a565b90508083825260208201905060208402830185811115610af857610af7610a91565b5b835b81811015610b215780610b0d8882610aad565b845260208401935050602081019050610afa565b5050509392505050565b600082601f830112610b4057610b3f610a03565b5b8151610b50848260208601610ac2565b91505092915050565b600060208284031215610b6f57610b6e61081d565b5b600082015167ffffffffffffffff811115610b8d57610b8c610822565b5b610b9984828501610b2b565b9150509291505056fea2646970667358221220f12c9d83a15798d39d88bd0d426cc9aa9476ce2b1ef8763de2498baa0d6e80e864736f6c63430008170033",
  "linkReferences": {},
  "deployedLinkReferences": {}
}